{
  "contractName": "Faucet",
  "abi": [
    {
      "inputs": [],
      "name": "destroy",
      "outputs": [],
      "stateMutability": "nonpayable",
      "type": "function"
    },
    {
      "stateMutability": "payable",
      "type": "receive",
      "payable": true
    },
    {
      "inputs": [
        {
          "internalType": "uint256",
          "name": "withdraw_amount",
          "type": "uint256"
        }
      ],
      "name": "withdraw",
      "outputs": [],
      "stateMutability": "nonpayable",
      "type": "function"
    }
  ],
  "bytecode": "0x608060405234801561001057600080fd5b50336000806101000a81548173ffffffffffffffffffffffffffffffffffffffff021916908373ffffffffffffffffffffffffffffffffffffffff160217905550610207806100606000396000f3fe60806040526004361061002d5760003560e01c80632e1a7d4d1461003957806383197ef01461006257610034565b3661003457005b600080fd5b34801561004557600080fd5b50610060600480360381019061005b91906101a4565b610079565b005b34801561006e57600080fd5b506100776100d8565b005b67016345785d8a000081111561008e57600080fd5b3373ffffffffffffffffffffffffffffffffffffffff166108fc829081150290604051600060405180830381858888f193505050501580156100d4573d6000803e3d6000fd5b5050565b60008054906101000a900473ffffffffffffffffffffffffffffffffffffffff1673ffffffffffffffffffffffffffffffffffffffff163373ffffffffffffffffffffffffffffffffffffffff161461013057600080fd5b60008054906101000a900473ffffffffffffffffffffffffffffffffffffffff1673ffffffffffffffffffffffffffffffffffffffff16ff5b600080fd5b6000819050919050565b6101818161016e565b811461018c57600080fd5b50565b60008135905061019e81610178565b92915050565b6000602082840312156101ba576101b9610169565b5b60006101c88482850161018f565b9150509291505056fea2646970667358221220da283b4c48335e10f3e3b0ac509680faf8b5f0b4d2bc9d062fcab07ebf355a0a64736f6c634300080d0033",
  "immutableReferences": {},
  "source": "// SPDX-License-Identifier: GPL-3.0\npragma solidity ^0.8.0;\n\ncontract owner {\n    address payable owner;\n\n    // contract constructor: set owner\n    constructor() {\n        owner = payable(msg.sender);\n    }\n\n    // access controller modifier\n    modifier onlyOwner {\n        require (msg.sender == owner);\n        _;\n    }\n}\n\ncontract mortal is owner {\n    // contract destructor\n    function destroy() public onlyOwner {\n        selfdestruct(owner);\n    }\n}\n\ncontract Faucet is mortal {\n    // Give out ether to anyone who asks\n    function withdraw(uint withdraw_amount) public {\n        // Limit withdrawal amount\n        require(withdraw_amount <= 0.1 ether);\n        // Send the amount to the address that requested it\n        payable(msg.sender).transfer(withdraw_amount);\n    }\n\n    // Accept any incoming amount\n    receive() external payable {}\n}",
  "sourcePath": "/Users/Anh.Le/Workspace/GitHub/eth-truffle/contracts/Faucet.sol",
  "compiler": {
    "name": "solc",
    "version": "0.8.13+commit.abaa5c0e.Emscripten.clang"
  },
  "schemaVersion": "3.4.6",
  "updatedAt": "2022-04-02T21:06:41.574Z",
  "networkType": "ethereum",
  "devdoc": {
    "kind": "dev",
    "methods": {},
    "version": 1
  },
  "userdoc": {
    "kind": "user",
    "methods": {},
    "version": 1
  }
}