{
  "contractName": "mortal",
  "abi": [
    {
      "inputs": [],
      "name": "destroy",
      "outputs": [],
      "stateMutability": "nonpayable",
      "type": "function"
    }
  ],
  "bytecode": "0x608060405234801561001057600080fd5b50336000806101000a81548173ffffffffffffffffffffffffffffffffffffffff021916908373ffffffffffffffffffffffffffffffffffffffff16021790555060fb8061005f6000396000f3fe6080604052348015600f57600080fd5b506004361060285760003560e01c806383197ef014602d575b600080fd5b60336035565b005b60008054906101000a900473ffffffffffffffffffffffffffffffffffffffff1673ffffffffffffffffffffffffffffffffffffffff163373ffffffffffffffffffffffffffffffffffffffff1614608c57600080fd5b60008054906101000a900473ffffffffffffffffffffffffffffffffffffffff1673ffffffffffffffffffffffffffffffffffffffff16fffea26469706673582212206a3af3d5a2a1fa53cf6fe7e79fe91f8fa8c0da6233d58eedad6b8389a11684fa64736f6c634300080d0033",
  "immutableReferences": {},
  "source": "// SPDX-License-Identifier: GPL-3.0\npragma solidity ^0.8.0;\n\ncontract owner {\n    address payable owner;\n\n    // contract constructor: set owner\n    constructor() {\n        owner = payable(msg.sender);\n    }\n\n    // access controller modifier\n    modifier onlyOwner {\n        require (msg.sender == owner);\n        _;\n    }\n}\n\ncontract mortal is owner {\n    // contract destructor\n    function destroy() public onlyOwner {\n        selfdestruct(owner);\n    }\n}\n\ncontract Faucet is mortal {\n    // Give out ether to anyone who asks\n    function withdraw(uint withdraw_amount) public {\n        // Limit withdrawal amount\n        require(withdraw_amount <= 0.1 ether);\n        // Send the amount to the address that requested it\n        payable(msg.sender).transfer(withdraw_amount);\n    }\n\n    // Accept any incoming amount\n    receive() external payable {}\n}",
  "sourcePath": "/Users/Anh.Le/Workspace/GitHub/eth-truffle/contracts/Faucet.sol",
  "compiler": {
    "name": "solc",
    "version": "0.8.13+commit.abaa5c0e.Emscripten.clang"
  },
  "schemaVersion": "3.4.6",
  "updatedAt": "2022-04-02T20:42:53.331Z",
  "devdoc": {
    "kind": "dev",
    "methods": {},
    "version": 1
  },
  "userdoc": {
    "kind": "user",
    "methods": {},
    "version": 1
  }
}