{
  "contractName": "Token",
  "abi": [
    {
      "inputs": [
        {
          "internalType": "address payable",
          "name": "_f",
          "type": "address"
        }
      ],
      "stateMutability": "nonpayable",
      "type": "constructor"
    },
    {
      "inputs": [],
      "name": "destroy",
      "outputs": [],
      "stateMutability": "nonpayable",
      "type": "function"
    }
  ],
  "bytecode": "0x608060405234801561001057600080fd5b50604051610351380380610351833981810160405281019061003291906101b1565b336000806101000a81548173ffffffffffffffffffffffffffffffffffffffff021916908373ffffffffffffffffffffffffffffffffffffffff16021790555080600160006101000a81548173ffffffffffffffffffffffffffffffffffffffff021916908373ffffffffffffffffffffffffffffffffffffffff160217905550600160009054906101000a900473ffffffffffffffffffffffffffffffffffffffff1673ffffffffffffffffffffffffffffffffffffffff16632e1a7d4d67016345785d8a00006040518263ffffffff1660e01b8152600401610116919061022d565b600060405180830381600087803b15801561013057600080fd5b505af1158015610144573d6000803e3d6000fd5b5050505050610248565b600080fd5b600073ffffffffffffffffffffffffffffffffffffffff82169050919050565b600061017e82610153565b9050919050565b61018e81610173565b811461019957600080fd5b50565b6000815190506101ab81610185565b92915050565b6000602082840312156101c7576101c661014e565b5b60006101d58482850161019c565b91505092915050565b6000819050919050565b6000819050919050565b6000819050919050565b600061021761021261020d846101de565b6101f2565b6101e8565b9050919050565b610227816101fc565b82525050565b6000602082019050610242600083018461021e565b92915050565b60fb806102566000396000f3fe6080604052348015600f57600080fd5b506004361060285760003560e01c806383197ef014602d575b600080fd5b60336035565b005b60008054906101000a900473ffffffffffffffffffffffffffffffffffffffff1673ffffffffffffffffffffffffffffffffffffffff163373ffffffffffffffffffffffffffffffffffffffff1614608c57600080fd5b60008054906101000a900473ffffffffffffffffffffffffffffffffffffffff1673ffffffffffffffffffffffffffffffffffffffff16fffea2646970667358221220ec9a9fee76d6d74cdae50d5715aba3c5b0b0d3667c934df972320e1f3d01c39964736f6c634300080d0033",
  "immutableReferences": {},
  "source": "// SPDX-License-Identifier: GPL-3.0\npragma solidity ^0.8.0;\n\nimport \"./Faucet.sol\";\n\ncontract Token is mortal {\n    Faucet _faucet;\n\n    constructor(address payable _f) {\n        // create another contract and send a value\n        _faucet = Faucet(_f);\n        _faucet.withdraw(0.1  ether);\n    }\n}",
  "sourcePath": "/Users/Anh.Le/Workspace/GitHub/eth-truffle/contracts/Token.sol",
  "compiler": {
    "name": "solc",
    "version": "0.8.13+commit.abaa5c0e.Emscripten.clang"
  },
  "schemaVersion": "3.4.6",
  "updatedAt": "2022-04-02T22:46:16.964Z",
  "devdoc": {
    "kind": "dev",
    "methods": {},
    "version": 1
  },
  "userdoc": {
    "kind": "user",
    "methods": {},
    "version": 1
  }
}